{
  "_format": "hh-sol-artifact-1",
  "contractName": "Escrow",
  "sourceName": "contracts/Escrow.sol",
  "abi": [
    {
      "inputs": [
        {
          "internalType": "address",
          "name": "_nftAddress",
          "type": "address"
        }
      ],
      "stateMutability": "nonpayable",
      "type": "constructor"
    },
    {
      "inputs": [
        {
          "internalType": "uint256",
          "name": "_nftID",
          "type": "uint256"
        }
      ],
      "name": "approveSale",
      "outputs": [],
      "stateMutability": "nonpayable",
      "type": "function"
    },
    {
      "inputs": [
        {
          "internalType": "uint256",
          "name": "_nftID",
          "type": "uint256"
        }
      ],
      "name": "cancelSale",
      "outputs": [],
      "stateMutability": "nonpayable",
      "type": "function"
    },
    {
      "inputs": [
        {
          "internalType": "uint256",
          "name": "_nftID",
          "type": "uint256"
        },
        {
          "internalType": "address",
          "name": "_inspector",
          "type": "address"
        },
        {
          "internalType": "address",
          "name": "_lender",
          "type": "address"
        }
      ],
      "name": "depositEarnest",
      "outputs": [],
      "stateMutability": "payable",
      "type": "function"
    },
    {
      "inputs": [
        {
          "internalType": "uint256",
          "name": "_nftID",
          "type": "uint256"
        }
      ],
      "name": "finalizeSale",
      "outputs": [],
      "stateMutability": "nonpayable",
      "type": "function"
    },
    {
      "inputs": [],
      "name": "getBalance",
      "outputs": [
        {
          "internalType": "uint256",
          "name": "",
          "type": "uint256"
        }
      ],
      "stateMutability": "view",
      "type": "function"
    },
    {
      "inputs": [
        {
          "internalType": "uint256",
          "name": "_nftID",
          "type": "uint256"
        },
        {
          "internalType": "uint256",
          "name": "_purchasePrice",
          "type": "uint256"
        },
        {
          "internalType": "uint256",
          "name": "_escrowAmount",
          "type": "uint256"
        }
      ],
      "name": "list",
      "outputs": [],
      "stateMutability": "payable",
      "type": "function"
    },
    {
      "inputs": [],
      "name": "nftAddress",
      "outputs": [
        {
          "internalType": "address",
          "name": "",
          "type": "address"
        }
      ],
      "stateMutability": "view",
      "type": "function"
    },
    {
      "inputs": [
        {
          "internalType": "uint256",
          "name": "",
          "type": "uint256"
        }
      ],
      "name": "properties",
      "outputs": [
        {
          "internalType": "address payable",
          "name": "seller",
          "type": "address"
        },
        {
          "internalType": "address payable",
          "name": "buyer",
          "type": "address"
        },
        {
          "internalType": "address",
          "name": "inspector",
          "type": "address"
        },
        {
          "internalType": "address",
          "name": "lender",
          "type": "address"
        },
        {
          "internalType": "uint256",
          "name": "purchasePrice",
          "type": "uint256"
        },
        {
          "internalType": "uint256",
          "name": "escrowAmount",
          "type": "uint256"
        },
        {
          "internalType": "bool",
          "name": "isInspected",
          "type": "bool"
        },
        {
          "internalType": "bool",
          "name": "lenderApproved",
          "type": "bool"
        },
        {
          "internalType": "enum Escrow.State",
          "name": "state",
          "type": "uint8"
        },
        {
          "internalType": "uint256",
          "name": "pendingAmount",
          "type": "uint256"
        }
      ],
      "stateMutability": "view",
      "type": "function"
    },
    {
      "inputs": [
        {
          "internalType": "uint256",
          "name": "_nftID",
          "type": "uint256"
        },
        {
          "internalType": "bool",
          "name": "_passed",
          "type": "bool"
        }
      ],
      "name": "updateInspectionStatus",
      "outputs": [],
      "stateMutability": "nonpayable",
      "type": "function"
    },
    {
      "stateMutability": "payable",
      "type": "receive"
    }
  ],
  "bytecode": "0x60806040523480156200001157600080fd5b50604051620018f2380380620018f28339818101604052810190620000379190620000e8565b806000806101000a81548173ffffffffffffffffffffffffffffffffffffffff021916908373ffffffffffffffffffffffffffffffffffffffff160217905550506200011a565b600080fd5b600073ffffffffffffffffffffffffffffffffffffffff82169050919050565b6000620000b08262000083565b9050919050565b620000c281620000a3565b8114620000ce57600080fd5b50565b600081519050620000e281620000b7565b92915050565b6000602082840312156200010157620001006200007e565b5b60006200011184828501620000d1565b91505092915050565b6117c8806200012a6000396000f3fe60806040526004361061008a5760003560e01c80635bf8633a116100595780635bf8633a146101225780639d0e5fd61461014d578063aa92938014610176578063bd94b0051461019f578063f7b10808146101c857610091565b806310d0fc5f1461009657806312065fe0146100b257806314a72feb146100dd57806319aeb4901461010657610091565b3661009157005b600080fd5b6100b060048036038101906100ab9190610f94565b61020e565b005b3480156100be57600080fd5b506100c76103ec565b6040516100d49190610ff6565b60405180910390f35b3480156100e957600080fd5b5061010460048036038101906100ff9190611011565b6103f4565b005b610120600480360381019061011b919061103e565b6104c9565b005b34801561012e57600080fd5b50610137610627565b60405161014491906110a0565b60405180910390f35b34801561015957600080fd5b50610174600480360381019061016f91906110f3565b61064b565b005b34801561018257600080fd5b5061019d60048036038101906101989190611011565b610721565b005b3480156101ab57600080fd5b506101c660048036038101906101c19190611011565b610b53565b005b3480156101d457600080fd5b506101ef60048036038101906101ea9190611011565b610e00565b6040516102059a999897969594939291906111da565b60405180910390f35b600160008481526020019081526020016000206005015434101561023157600080fd5b336001600085815260200190815260200160002060010160006101000a81548173ffffffffffffffffffffffffffffffffffffffff021916908373ffffffffffffffffffffffffffffffffffffffff160217905550816001600085815260200190815260200160002060020160006101000a81548173ffffffffffffffffffffffffffffffffffffffff021916908373ffffffffffffffffffffffffffffffffffffffff160217905550806001600085815260200190815260200160002060030160006101000a81548173ffffffffffffffffffffffffffffffffffffffff021916908373ffffffffffffffffffffffffffffffffffffffff16021790555060006001600085815260200190815260200160002060060160006101000a81548160ff02191690831515021790555060006001600085815260200190815260200160002060060160016101000a81548160ff021916908315150217905550600180600085815260200190815260200160002060060160026101000a81548160ff021916908360028111156103c7576103c6611163565b5b0217905550346001600085815260200190815260200160002060070181905550505050565b600047905090565b3373ffffffffffffffffffffffffffffffffffffffff166001600083815260200190815260200160002060030160009054906101000a900473ffffffffffffffffffffffffffffffffffffffff1673ffffffffffffffffffffffffffffffffffffffff1614610498576040517f08c379a000000000000000000000000000000000000000000000000000000000815260040161048f906112f9565b60405180910390fd5b600180600083815260200190815260200160002060060160016101000a81548160ff02191690831515021790555050565b60008054906101000a900473ffffffffffffffffffffffffffffffffffffffff1673ffffffffffffffffffffffffffffffffffffffff166323b872dd3330866040518463ffffffff1660e01b815260040161052693929190611319565b600060405180830381600087803b15801561054057600080fd5b505af1158015610554573d6000803e3d6000fd5b50505050336001600085815260200190815260200160002060000160006101000a81548173ffffffffffffffffffffffffffffffffffffffff021916908373ffffffffffffffffffffffffffffffffffffffff16021790555081600160008581526020019081526020016000206004018190555080600160008581526020019081526020016000206005018190555060006001600085815260200190815260200160002060060160026101000a81548160ff0219169083600281111561061d5761061c611163565b5b0217905550505050565b60008054906101000a900473ffffffffffffffffffffffffffffffffffffffff1681565b3373ffffffffffffffffffffffffffffffffffffffff166001600084815260200190815260200160002060020160009054906101000a900473ffffffffffffffffffffffffffffffffffffffff1673ffffffffffffffffffffffffffffffffffffffff16146106ef576040517f08c379a00000000000000000000000000000000000000000000000000000000081526004016106e6906113c2565b60405180910390fd5b806001600084815260200190815260200160002060060160006101000a81548160ff0219169083151502179055505050565b3373ffffffffffffffffffffffffffffffffffffffff166001600083815260200190815260200160002060000160009054906101000a900473ffffffffffffffffffffffffffffffffffffffff1673ffffffffffffffffffffffffffffffffffffffff16146107c5576040517f08c379a00000000000000000000000000000000000000000000000000000000081526004016107bc90611454565b60405180910390fd5b6001600082815260200190815260200160002060060160009054906101000a900460ff16610828576040517f08c379a000000000000000000000000000000000000000000000000000000000815260040161081f906114c0565b60405180910390fd5b6001600082815260200190815260200160002060060160019054906101000a900460ff1661088b576040517f08c379a00000000000000000000000000000000000000000000000000000000081526004016108829061152c565b60405180910390fd5b60016000828152602001908152602001600020600401544710156108e4576040517f08c379a00000000000000000000000000000000000000000000000000000000081526004016108db90611598565b60405180910390fd5b600160008281526020019081526020016000206004015460016000838152602001908152602001600020600701541015610953576040517f08c379a000000000000000000000000000000000000000000000000000000000815260040161094a90611598565b60405180910390fd5b60006001600083815260200190815260200160002060000160009054906101000a900473ffffffffffffffffffffffffffffffffffffffff1673ffffffffffffffffffffffffffffffffffffffff1660016000848152602001908152602001600020600701546040516109c5906115e9565b60006040518083038185875af1925050503d8060008114610a02576040519150601f19603f3d011682016040523d82523d6000602084013e610a07565b606091505b5050905080610a4b576040517f08c379a0000000000000000000000000000000000000000000000000000000008152600401610a429061164a565b60405180910390fd5b60008054906101000a900473ffffffffffffffffffffffffffffffffffffffff1673ffffffffffffffffffffffffffffffffffffffff166323b872dd306001600086815260200190815260200160002060010160009054906101000a900473ffffffffffffffffffffffffffffffffffffffff16856040518463ffffffff1660e01b8152600401610ade939291906116c9565b600060405180830381600087803b158015610af857600080fd5b505af1158015610b0c573d6000803e3d6000fd5b5050505060026001600084815260200190815260200160002060060160026101000a81548160ff02191690836002811115610b4a57610b49611163565b5b02179055505050565b3373ffffffffffffffffffffffffffffffffffffffff166001600083815260200190815260200160002060010160009054906101000a900473ffffffffffffffffffffffffffffffffffffffff1673ffffffffffffffffffffffffffffffffffffffff161480610c2457503373ffffffffffffffffffffffffffffffffffffffff166001600083815260200190815260200160002060000160009054906101000a900473ffffffffffffffffffffffffffffffffffffffff1673ffffffffffffffffffffffffffffffffffffffff16145b610c63576040517f08c379a0000000000000000000000000000000000000000000000000000000008152600401610c5a90611772565b60405180910390fd5b600015156001600083815260200190815260200160002060060160009054906101000a900460ff16151503610d2a576001600082815260200190815260200160002060010160009054906101000a900473ffffffffffffffffffffffffffffffffffffffff1673ffffffffffffffffffffffffffffffffffffffff166108fc60016000848152602001908152602001600020600701549081150290604051600060405180830381858888f19350505050158015610d24573d6000803e3d6000fd5b50610dbe565b6001600082815260200190815260200160002060000160009054906101000a900473ffffffffffffffffffffffffffffffffffffffff1673ffffffffffffffffffffffffffffffffffffffff166108fc60016000848152602001908152602001600020600701549081150290604051600060405180830381858888f19350505050158015610dbc573d6000803e3d6000fd5b505b60006001600083815260200190815260200160002060060160026101000a81548160ff02191690836002811115610df857610df7611163565b5b021790555050565b60016020528060005260406000206000915090508060000160009054906101000a900473ffffffffffffffffffffffffffffffffffffffff16908060010160009054906101000a900473ffffffffffffffffffffffffffffffffffffffff16908060020160009054906101000a900473ffffffffffffffffffffffffffffffffffffffff16908060030160009054906101000a900473ffffffffffffffffffffffffffffffffffffffff16908060040154908060050154908060060160009054906101000a900460ff16908060060160019054906101000a900460ff16908060060160029054906101000a900460ff1690806007015490508a565b600080fd5b6000819050919050565b610f1381610f00565b8114610f1e57600080fd5b50565b600081359050610f3081610f0a565b92915050565b600073ffffffffffffffffffffffffffffffffffffffff82169050919050565b6000610f6182610f36565b9050919050565b610f7181610f56565b8114610f7c57600080fd5b50565b600081359050610f8e81610f68565b92915050565b600080600060608486031215610fad57610fac610efb565b5b6000610fbb86828701610f21565b9350506020610fcc86828701610f7f565b9250506040610fdd86828701610f7f565b9150509250925092565b610ff081610f00565b82525050565b600060208201905061100b6000830184610fe7565b92915050565b60006020828403121561102757611026610efb565b5b600061103584828501610f21565b91505092915050565b60008060006060848603121561105757611056610efb565b5b600061106586828701610f21565b935050602061107686828701610f21565b925050604061108786828701610f21565b9150509250925092565b61109a81610f56565b82525050565b60006020820190506110b56000830184611091565b92915050565b60008115159050919050565b6110d0816110bb565b81146110db57600080fd5b50565b6000813590506110ed816110c7565b92915050565b6000806040838503121561110a57611109610efb565b5b600061111885828601610f21565b9250506020611129858286016110de565b9150509250929050565b600061113e82610f36565b9050919050565b61114e81611133565b82525050565b61115d816110bb565b82525050565b7f4e487b7100000000000000000000000000000000000000000000000000000000600052602160045260246000fd5b600381106111a3576111a2611163565b5b50565b60008190506111b482611192565b919050565b60006111c4826111a6565b9050919050565b6111d4816111b9565b82525050565b6000610140820190506111f0600083018d611145565b6111fd602083018c611145565b61120a604083018b611091565b611217606083018a611091565b6112246080830189610fe7565b61123160a0830188610fe7565b61123e60c0830187611154565b61124b60e0830186611154565b6112596101008301856111cb565b611267610120830184610fe7565b9b9a5050505050505050505050565b600082825260208201905092915050565b7f4f6e6c7920617574686f72697a6564206c656e6465722063616e2063616c6c2060008201527f74686973206d6574686f64000000000000000000000000000000000000000000602082015250565b60006112e3602b83611276565b91506112ee82611287565b604082019050919050565b60006020820190508181036000830152611312816112d6565b9050919050565b600060608201905061132e6000830186611091565b61133b6020830185611091565b6113486040830184610fe7565b949350505050565b7f4f6e6c7920617574686f72697a656420696e73706563746f722063616e20636160008201527f6c6c2074686973206d6574686f64000000000000000000000000000000000000602082015250565b60006113ac602e83611276565b91506113b782611350565b604082019050919050565b600060208201905081810360008301526113db8161139f565b9050919050565b7f4f6e6c7920617574686f72697a65642073656c6c65722063616e2063616c6c2060008201527f74686973206d6574686f64000000000000000000000000000000000000000000602082015250565b600061143e602b83611276565b9150611449826113e2565b604082019050919050565b6000602082019050818103600083015261146d81611431565b9050919050565b7f4e6f7420696e7370656374656400000000000000000000000000000000000000600082015250565b60006114aa600d83611276565b91506114b582611474565b602082019050919050565b600060208201905081810360008301526114d98161149d565b9050919050565b7f4e6f7420617070726f7665640000000000000000000000000000000000000000600082015250565b6000611516600c83611276565b9150611521826114e0565b602082019050919050565b6000602082019050818103600083015261154581611509565b9050919050565b7f4e6f7420656e6f75676820616d6f756e74000000000000000000000000000000600082015250565b6000611582601183611276565b915061158d8261154c565b602082019050919050565b600060208201905081810360008301526115b181611575565b9050919050565b600081905092915050565b50565b60006115d36000836115b8565b91506115de826115c3565b600082019050919050565b60006115f4826115c6565b9150819050919050565b7f43616e6e6f74207061792073656c6c6572000000000000000000000000000000600082015250565b6000611634601183611276565b915061163f826115fe565b602082019050919050565b6000602082019050818103600083015261166381611627565b9050919050565b6000819050919050565b600061168f61168a61168584610f36565b61166a565b610f36565b9050919050565b60006116a182611674565b9050919050565b60006116b382611696565b9050919050565b6116c3816116a8565b82525050565b60006060820190506116de6000830186611091565b6116eb60208301856116ba565b6116f86040830184610fe7565b949350505050565b7f4f6e6c7920617574686f72697a65642073656c6c6572206f722062757965722060008201527f63616e2063616c6c2074686973206d6574686f64000000000000000000000000602082015250565b600061175c603483611276565b915061176782611700565b604082019050919050565b6000602082019050818103600083015261178b8161174f565b905091905056fea2646970667358221220be9a09d5f25390591fd99061640b45b6d76b9784e36efee86cb78e60e2bd014d64736f6c63430008110033",
  "linkReferences": {},
  "deployedLinkReferences": {}
}