{
  "_format": "hh-sol-artifact-1",
  "contractName": "Escrow",
  "sourceName": "contracts/Escrow.sol",
  "abi": [
    {
      "inputs": [
        {
          "internalType": "address",
          "name": "_nftAddress",
          "type": "address"
        }
      ],
      "stateMutability": "nonpayable",
      "type": "constructor"
    },
    {
      "inputs": [
        {
          "internalType": "uint256",
          "name": "_nftID",
          "type": "uint256"
        }
      ],
      "name": "approveSale",
      "outputs": [],
      "stateMutability": "payable",
      "type": "function"
    },
    {
      "inputs": [
        {
          "internalType": "uint256",
          "name": "_nftID",
          "type": "uint256"
        }
      ],
      "name": "cancelSale",
      "outputs": [],
      "stateMutability": "nonpayable",
      "type": "function"
    },
    {
      "inputs": [
        {
          "internalType": "uint256",
          "name": "_nftID",
          "type": "uint256"
        },
        {
          "internalType": "address",
          "name": "_inspector",
          "type": "address"
        },
        {
          "internalType": "address",
          "name": "_lender",
          "type": "address"
        }
      ],
      "name": "depositEarnest",
      "outputs": [],
      "stateMutability": "payable",
      "type": "function"
    },
    {
      "inputs": [
        {
          "internalType": "uint256",
          "name": "_nftID",
          "type": "uint256"
        }
      ],
      "name": "finalizeSale",
      "outputs": [],
      "stateMutability": "nonpayable",
      "type": "function"
    },
    {
      "inputs": [],
      "name": "getBalance",
      "outputs": [
        {
          "internalType": "uint256",
          "name": "",
          "type": "uint256"
        }
      ],
      "stateMutability": "view",
      "type": "function"
    },
    {
      "inputs": [
        {
          "internalType": "uint256",
          "name": "_nftID",
          "type": "uint256"
        },
        {
          "internalType": "uint256",
          "name": "_purchasePrice",
          "type": "uint256"
        },
        {
          "internalType": "uint256",
          "name": "_escrowAmount",
          "type": "uint256"
        }
      ],
      "name": "list",
      "outputs": [],
      "stateMutability": "payable",
      "type": "function"
    },
    {
      "inputs": [],
      "name": "nftAddress",
      "outputs": [
        {
          "internalType": "address",
          "name": "",
          "type": "address"
        }
      ],
      "stateMutability": "view",
      "type": "function"
    },
    {
      "inputs": [
        {
          "internalType": "uint256",
          "name": "",
          "type": "uint256"
        }
      ],
      "name": "properties",
      "outputs": [
        {
          "internalType": "address payable",
          "name": "seller",
          "type": "address"
        },
        {
          "internalType": "address payable",
          "name": "buyer",
          "type": "address"
        },
        {
          "internalType": "address",
          "name": "inspector",
          "type": "address"
        },
        {
          "internalType": "address",
          "name": "lender",
          "type": "address"
        },
        {
          "internalType": "uint256",
          "name": "purchasePrice",
          "type": "uint256"
        },
        {
          "internalType": "uint256",
          "name": "escrowAmount",
          "type": "uint256"
        },
        {
          "internalType": "bool",
          "name": "isInspected",
          "type": "bool"
        },
        {
          "internalType": "bool",
          "name": "lenderApproved",
          "type": "bool"
        },
        {
          "internalType": "enum Escrow.State",
          "name": "state",
          "type": "uint8"
        },
        {
          "internalType": "uint256",
          "name": "paidAmount",
          "type": "uint256"
        },
        {
          "internalType": "uint256",
          "name": "lentAmount",
          "type": "uint256"
        }
      ],
      "stateMutability": "view",
      "type": "function"
    },
    {
      "inputs": [
        {
          "internalType": "uint256",
          "name": "_nftID",
          "type": "uint256"
        },
        {
          "internalType": "bool",
          "name": "_passed",
          "type": "bool"
        }
      ],
      "name": "updateInspectionStatus",
      "outputs": [],
      "stateMutability": "nonpayable",
      "type": "function"
    },
    {
      "stateMutability": "payable",
      "type": "receive"
    }
  ],
  "bytecode": "0x60806040523480156200001157600080fd5b5060405162001f3438038062001f348339818101604052810190620000379190620000e8565b806000806101000a81548173ffffffffffffffffffffffffffffffffffffffff021916908373ffffffffffffffffffffffffffffffffffffffff160217905550506200011a565b600080fd5b600073ffffffffffffffffffffffffffffffffffffffff82169050919050565b6000620000b08262000083565b9050919050565b620000c281620000a3565b8114620000ce57600080fd5b50565b600081519050620000e281620000b7565b92915050565b6000602082840312156200010157620001006200007e565b5b60006200011184828501620000d1565b91505092915050565b611e0a806200012a6000396000f3fe60806040526004361061008a5760003560e01c80635bf8633a116100595780635bf8633a146101155780639d0e5fd614610140578063aa92938014610169578063bd94b00514610192578063f7b10808146101bb57610091565b806310d0fc5f1461009657806312065fe0146100b257806314a72feb146100dd57806319aeb490146100f957610091565b3661009157005b600080fd5b6100b060048036038101906100ab91906113b4565b610202565b005b3480156100be57600080fd5b506100c76104bc565b6040516100d49190611416565b60405180910390f35b6100f760048036038101906100f29190611431565b6104c4565b005b610113600480360381019061010e919061145e565b610650565b005b34801561012157600080fd5b5061012a6107ae565b60405161013791906114c0565b60405180910390f35b34801561014c57600080fd5b5061016760048036038101906101629190611513565b6107d2565b005b34801561017557600080fd5b50610190600480360381019061018b9190611431565b610932565b005b34801561019e57600080fd5b506101b960048036038101906101b49190611431565b610dff565b005b3480156101c757600080fd5b506101e260048036038101906101dd9190611431565b61121a565b6040516101f99b9a999897969594939291906115fa565b60405180910390f35b6000600281111561021657610215611583565b5b6001600085815260200190815260200160002060060160029054906101000a900460ff16600281111561024c5761024b611583565b5b1461028c576040517f08c379a000000000000000000000000000000000000000000000000000000000815260040161028390611702565b60405180910390fd5b60016000848152602001908152602001600020600501543410156102e5576040517f08c379a00000000000000000000000000000000000000000000000000000000081526004016102dc9061176e565b60405180910390fd5b336001600085815260200190815260200160002060010160006101000a81548173ffffffffffffffffffffffffffffffffffffffff021916908373ffffffffffffffffffffffffffffffffffffffff160217905550816001600085815260200190815260200160002060020160006101000a81548173ffffffffffffffffffffffffffffffffffffffff021916908373ffffffffffffffffffffffffffffffffffffffff160217905550806001600085815260200190815260200160002060030160006101000a81548173ffffffffffffffffffffffffffffffffffffffff021916908373ffffffffffffffffffffffffffffffffffffffff16021790555060006001600085815260200190815260200160002060060160006101000a81548160ff02191690831515021790555060006001600085815260200190815260200160002060060160016101000a81548160ff021916908315150217905550600180600085815260200190815260200160002060060160026101000a81548160ff0219169083600281111561047b5761047a611583565b5b021790555034600160008581526020019081526020016000206007018190555060006001600085815260200190815260200160002060080181905550505050565b600047905090565b600160028111156104d8576104d7611583565b5b6001600083815260200190815260200160002060060160029054906101000a900460ff16600281111561050e5761050d611583565b5b1461054e576040517f08c379a0000000000000000000000000000000000000000000000000000000008152600401610545906117da565b60405180910390fd5b3373ffffffffffffffffffffffffffffffffffffffff166001600083815260200190815260200160002060030160009054906101000a900473ffffffffffffffffffffffffffffffffffffffff1673ffffffffffffffffffffffffffffffffffffffff16146105f2576040517f08c379a00000000000000000000000000000000000000000000000000000000081526004016105e99061186c565b60405180910390fd5b600180600083815260200190815260200160002060060160016101000a81548160ff0219169083151502179055503460016000838152602001908152602001600020600801600082825461064691906118bb565b9250508190555050565b60008054906101000a900473ffffffffffffffffffffffffffffffffffffffff1673ffffffffffffffffffffffffffffffffffffffff166323b872dd3330866040518463ffffffff1660e01b81526004016106ad939291906118ef565b600060405180830381600087803b1580156106c757600080fd5b505af11580156106db573d6000803e3d6000fd5b50505050336001600085815260200190815260200160002060000160006101000a81548173ffffffffffffffffffffffffffffffffffffffff021916908373ffffffffffffffffffffffffffffffffffffffff16021790555081600160008581526020019081526020016000206004018190555080600160008581526020019081526020016000206005018190555060006001600085815260200190815260200160002060060160026101000a81548160ff021916908360028111156107a4576107a3611583565b5b0217905550505050565b60008054906101000a900473ffffffffffffffffffffffffffffffffffffffff1681565b600160028111156107e6576107e5611583565b5b6001600084815260200190815260200160002060060160029054906101000a900460ff16600281111561081c5761081b611583565b5b1461085c576040517f08c379a0000000000000000000000000000000000000000000000000000000008152600401610853906117da565b60405180910390fd5b3373ffffffffffffffffffffffffffffffffffffffff166001600084815260200190815260200160002060020160009054906101000a900473ffffffffffffffffffffffffffffffffffffffff1673ffffffffffffffffffffffffffffffffffffffff1614610900576040517f08c379a00000000000000000000000000000000000000000000000000000000081526004016108f790611998565b60405180910390fd5b806001600084815260200190815260200160002060060160006101000a81548160ff0219169083151502179055505050565b6001600281111561094657610945611583565b5b6001600083815260200190815260200160002060060160029054906101000a900460ff16600281111561097c5761097b611583565b5b146109bc576040517f08c379a00000000000000000000000000000000000000000000000000000000081526004016109b3906117da565b60405180910390fd5b3373ffffffffffffffffffffffffffffffffffffffff166001600083815260200190815260200160002060000160009054906101000a900473ffffffffffffffffffffffffffffffffffffffff1673ffffffffffffffffffffffffffffffffffffffff1614610a60576040517f08c379a0000000000000000000000000000000000000000000000000000000008152600401610a5790611a2a565b60405180910390fd5b6001600082815260200190815260200160002060060160009054906101000a900460ff16610ac3576040517f08c379a0000000000000000000000000000000000000000000000000000000008152600401610aba90611a96565b60405180910390fd5b6001600082815260200190815260200160002060060160019054906101000a900460ff16610b26576040517f08c379a0000000000000000000000000000000000000000000000000000000008152600401610b1d90611b02565b60405180910390fd5b6001600082815260200190815260200160002060040154471015610b7f576040517f08c379a0000000000000000000000000000000000000000000000000000000008152600401610b7690611b6e565b60405180910390fd5b600060016000838152602001908152602001600020600801546001600084815260200190815260200160002060070154610bb991906118bb565b90506001600083815260200190815260200160002060040154811015610c14576040517f08c379a0000000000000000000000000000000000000000000000000000000008152600401610c0b90611bda565b60405180910390fd5b60006001600084815260200190815260200160002060000160009054906101000a900473ffffffffffffffffffffffffffffffffffffffff1673ffffffffffffffffffffffffffffffffffffffff1682604051610c7090611c2b565b60006040518083038185875af1925050503d8060008114610cad576040519150601f19603f3d011682016040523d82523d6000602084013e610cb2565b606091505b5050905080610cf6576040517f08c379a0000000000000000000000000000000000000000000000000000000008152600401610ced90611c8c565b60405180910390fd5b60008054906101000a900473ffffffffffffffffffffffffffffffffffffffff1673ffffffffffffffffffffffffffffffffffffffff166323b872dd306001600087815260200190815260200160002060010160009054906101000a900473ffffffffffffffffffffffffffffffffffffffff16866040518463ffffffff1660e01b8152600401610d8993929190611d0b565b600060405180830381600087803b158015610da357600080fd5b505af1158015610db7573d6000803e3d6000fd5b5050505060026001600085815260200190815260200160002060060160026101000a81548160ff02191690836002811115610df557610df4611583565b5b0217905550505050565b60016002811115610e1357610e12611583565b5b6001600083815260200190815260200160002060060160029054906101000a900460ff166002811115610e4957610e48611583565b5b14610e89576040517f08c379a0000000000000000000000000000000000000000000000000000000008152600401610e80906117da565b60405180910390fd5b3373ffffffffffffffffffffffffffffffffffffffff166001600083815260200190815260200160002060010160009054906101000a900473ffffffffffffffffffffffffffffffffffffffff1673ffffffffffffffffffffffffffffffffffffffff161480610f5a57503373ffffffffffffffffffffffffffffffffffffffff166001600083815260200190815260200160002060000160009054906101000a900473ffffffffffffffffffffffffffffffffffffffff1673ffffffffffffffffffffffffffffffffffffffff16145b610f99576040517f08c379a0000000000000000000000000000000000000000000000000000000008152600401610f9090611db4565b60405180910390fd5b600060016000838152602001908152602001600020600801546001600084815260200190815260200160002060070154610fd391906118bb565b9050600015156001600084815260200190815260200160002060060160009054906101000a900460ff16151503611159576001600083815260200190815260200160002060010160009054906101000a900473ffffffffffffffffffffffffffffffffffffffff1673ffffffffffffffffffffffffffffffffffffffff166108fc60016000858152602001908152602001600020600701549081150290604051600060405180830381858888f19350505050158015611096573d6000803e3d6000fd5b506001600083815260200190815260200160002060060160019054906101000a900460ff1615611154576001600083815260200190815260200160002060030160009054906101000a900473ffffffffffffffffffffffffffffffffffffffff1673ffffffffffffffffffffffffffffffffffffffff166108fc60016000858152602001908152602001600020600801549081150290604051600060405180830381858888f19350505050158015611152573d6000803e3d6000fd5b505b6111d7565b6001600083815260200190815260200160002060000160009054906101000a900473ffffffffffffffffffffffffffffffffffffffff1673ffffffffffffffffffffffffffffffffffffffff166108fc829081150290604051600060405180830381858888f193505050501580156111d5573d6000803e3d6000fd5b505b60006001600084815260200190815260200160002060060160026101000a81548160ff0219169083600281111561121157611210611583565b5b02179055505050565b60016020528060005260406000206000915090508060000160009054906101000a900473ffffffffffffffffffffffffffffffffffffffff16908060010160009054906101000a900473ffffffffffffffffffffffffffffffffffffffff16908060020160009054906101000a900473ffffffffffffffffffffffffffffffffffffffff16908060030160009054906101000a900473ffffffffffffffffffffffffffffffffffffffff16908060040154908060050154908060060160009054906101000a900460ff16908060060160019054906101000a900460ff16908060060160029054906101000a900460ff1690806007015490806008015490508b565b600080fd5b6000819050919050565b61133381611320565b811461133e57600080fd5b50565b6000813590506113508161132a565b92915050565b600073ffffffffffffffffffffffffffffffffffffffff82169050919050565b600061138182611356565b9050919050565b61139181611376565b811461139c57600080fd5b50565b6000813590506113ae81611388565b92915050565b6000806000606084860312156113cd576113cc61131b565b5b60006113db86828701611341565b93505060206113ec8682870161139f565b92505060406113fd8682870161139f565b9150509250925092565b61141081611320565b82525050565b600060208201905061142b6000830184611407565b92915050565b6000602082840312156114475761144661131b565b5b600061145584828501611341565b91505092915050565b6000806000606084860312156114775761147661131b565b5b600061148586828701611341565b935050602061149686828701611341565b92505060406114a786828701611341565b9150509250925092565b6114ba81611376565b82525050565b60006020820190506114d560008301846114b1565b92915050565b60008115159050919050565b6114f0816114db565b81146114fb57600080fd5b50565b60008135905061150d816114e7565b92915050565b6000806040838503121561152a5761152961131b565b5b600061153885828601611341565b9250506020611549858286016114fe565b9150509250929050565b600061155e82611356565b9050919050565b61156e81611553565b82525050565b61157d816114db565b82525050565b7f4e487b7100000000000000000000000000000000000000000000000000000000600052602160045260246000fd5b600381106115c3576115c2611583565b5b50565b60008190506115d4826115b2565b919050565b60006115e4826115c6565b9050919050565b6115f4816115d9565b82525050565b600061016082019050611610600083018e611565565b61161d602083018d611565565b61162a604083018c6114b1565b611637606083018b6114b1565b611644608083018a611407565b61165160a0830189611407565b61165e60c0830188611574565b61166b60e0830187611574565b6116796101008301866115eb565b611687610120830185611407565b611695610140830184611407565b9c9b505050505050505050505050565b600082825260208201905092915050565b7f4e6f74206f6e2073616c65000000000000000000000000000000000000000000600082015250565b60006116ec600b836116a5565b91506116f7826116b6565b602082019050919050565b6000602082019050818103600083015261171b816116df565b9050919050565b7f4e6f7420656e6f7567682065736363726f7720616d6f756e7400000000000000600082015250565b60006117586019836116a5565b915061176382611722565b602082019050919050565b600060208201905081810360008301526117878161174b565b9050919050565b7f4e6f7420696e2070656e64696e67000000000000000000000000000000000000600082015250565b60006117c4600e836116a5565b91506117cf8261178e565b602082019050919050565b600060208201905081810360008301526117f3816117b7565b9050919050565b7f4f6e6c7920617574686f72697a6564206c656e6465722063616e2063616c6c2060008201527f74686973206d6574686f64000000000000000000000000000000000000000000602082015250565b6000611856602b836116a5565b9150611861826117fa565b604082019050919050565b6000602082019050818103600083015261188581611849565b9050919050565b7f4e487b7100000000000000000000000000000000000000000000000000000000600052601160045260246000fd5b60006118c682611320565b91506118d183611320565b92508282019050808211156118e9576118e861188c565b5b92915050565b600060608201905061190460008301866114b1565b61191160208301856114b1565b61191e6040830184611407565b949350505050565b7f4f6e6c7920617574686f72697a656420696e73706563746f722063616e20636160008201527f6c6c2074686973206d6574686f64000000000000000000000000000000000000602082015250565b6000611982602e836116a5565b915061198d82611926565b604082019050919050565b600060208201905081810360008301526119b181611975565b9050919050565b7f4f6e6c7920617574686f72697a65642073656c6c65722063616e2063616c6c2060008201527f74686973206d6574686f64000000000000000000000000000000000000000000602082015250565b6000611a14602b836116a5565b9150611a1f826119b8565b604082019050919050565b60006020820190508181036000830152611a4381611a07565b9050919050565b7f4e6f7420696e7370656374656400000000000000000000000000000000000000600082015250565b6000611a80600d836116a5565b9150611a8b82611a4a565b602082019050919050565b60006020820190508181036000830152611aaf81611a73565b9050919050565b7f4e6f7420617070726f7665640000000000000000000000000000000000000000600082015250565b6000611aec600c836116a5565b9150611af782611ab6565b602082019050919050565b60006020820190508181036000830152611b1b81611adf565b9050919050565b7f4e6f7420656e6f7567682062616c616e63650000000000000000000000000000600082015250565b6000611b586012836116a5565b9150611b6382611b22565b602082019050919050565b60006020820190508181036000830152611b8781611b4b565b9050919050565b7f4e6f7420656e6f75676820616d6f756e74000000000000000000000000000000600082015250565b6000611bc46011836116a5565b9150611bcf82611b8e565b602082019050919050565b60006020820190508181036000830152611bf381611bb7565b9050919050565b600081905092915050565b50565b6000611c15600083611bfa565b9150611c2082611c05565b600082019050919050565b6000611c3682611c08565b9150819050919050565b7f43616e6e6f74207061792073656c6c6572000000000000000000000000000000600082015250565b6000611c766011836116a5565b9150611c8182611c40565b602082019050919050565b60006020820190508181036000830152611ca581611c69565b9050919050565b6000819050919050565b6000611cd1611ccc611cc784611356565b611cac565b611356565b9050919050565b6000611ce382611cb6565b9050919050565b6000611cf582611cd8565b9050919050565b611d0581611cea565b82525050565b6000606082019050611d2060008301866114b1565b611d2d6020830185611cfc565b611d3a6040830184611407565b949350505050565b7f4f6e6c7920617574686f72697a65642073656c6c6572206f722062757965722060008201527f63616e2063616c6c2074686973206d6574686f64000000000000000000000000602082015250565b6000611d9e6034836116a5565b9150611da982611d42565b604082019050919050565b60006020820190508181036000830152611dcd81611d91565b905091905056fea26469706673582212209c591b8c7d242040a9f1d9721049c3e4a8f73358c2ddfd633dd3c2278cbd0d0264736f6c63430008110033",
  "linkReferences": {},
  "deployedLinkReferences": {}
}